:020000040800F2
:10000000005000201903000815030008150300081C
:100010001503000815030008150300080000000080
:1000200000000000000000000000000015030008B0
:100030001503000800000000150300082502000851
:100040000023C0E900008360704700BFD0E90123AE
:100050000133C1E900021160C0E90113704700BF1C
:10006000D0E9002353601A60704700BF83680BB16A
:1000700000687047184670478068B0FA80F0400901
:10008000704700BF002208B5064B03F1EC00C3E93E
:100090003922C3F8E020FFF7D3FFBDE8084002484B
:1000A000FFF7CEBF00200020F8200020F8B514484C
:1000B000FFF7DCFF58B10446124F2546D5F8186407
:1000C0002468731E46B1C5F81834002CF5D10D48CC
:1000D000FFF7D2FF60B1F8BD2846FFF7C1FF294600
:1000E000384685F80C64FFF7B1FF002CE5D1EEE748
:1000F0000448FFF7BBFF044BC3F8E400F8BD00BFA2
:10010000F8200020EC20002000200020014BD3F834
:10011000E40070470020002038B50D4DD5F8E440CC
:100120001CB194F80C34012B03D0BDE83840FFF724
:10013000BDBF04F582642046FFF792FF214605F11A
:10014000EC00FFF783FFBDE83840FFF7AFBF00BF0B
:1001500000200020002230B4002400250648074B70
:10016000026003F14001C3E90045C3E902221033F4
:100170008B42F8D130BC70470421002008210020B8
:10018000F8B50C4E3368A3B100252F460A4CE3683E
:100190004BB1D4E9002301339342636003D3A368D6
:1001A000676003B1984733680135AB4204F110042E
:1001B000EDD8F8BD042100200821002008B5002357
:1001C00003221946184600F055F80023032218466A
:1001D000012100F04FF8002303221846022100F00D
:1001E00049F8002303220D21022000F043F80122E8
:1001F0000D21022000F064F800210122084600F0E1
:100200005FF801220020114600F05AF8BDE80840CE
:1002100001220221002000F053B800BF4FF4FA5031
:1002200000F06EB808B5064A13680133136000F099
:1002300099F8FFF73BFFBDE80840FFF7A1BF00BFFB
:10024000482100200D21022000F04EB80021084670
:1002500000F04AB80121002000F046B80221002039
:1002600000F042B8024A936903439361704700BFAC
:1002700000100240F8B506460D46DFF83CC01446B3
:100280005CF820001F46FFF7EDFF0F210B4B072DF9
:1002900053F8262005F0070588BF04321368AD0027
:1002A000A94023EA01031360136844EA8704AC40C1
:1002B0001C431460F8BD00BFC8050008D405000841
:1002C000012310B4074C8B4054F8200022B1C268BF
:1002D00010BC1343C3607047C26810BC22EA03031A
:1002E000C3607047D40500080123044A8B4052F8CC
:1002F0002020D0684340D360704700BFD405000879
:100300004FF0E023002107220138586199611A61FA
:10031000704700BFFEE700BF0D480E4A08B5904287
:1003200007D2013A121A22F003020B49043200F0FC
:10033000D5F80A480A4A904207D2013A121A22F026
:1003400003020021043200F079F800F00DF8FEE716
:100350000000002000000020F00500080000002040
:100360005C21002000F02CB808B5FFF727FFFFF74D
:1003700055FFFFF787FEFFF7EDFE00F00DF8FFF7E2
:1003800095FEFFF7C3FE18B1D0F8043403B19847C7
:10039000FFF7C2FEF5E700BF002310B40448054C88
:1003A0000549064A2360036010BC0B601360704768
:1003B0005421002058210020502100204C210020F1
:1003C0001A4A08B513680133632B16D81360184A0C
:1003D00013680133F92B19D81360164A13680133D7
:1003E000B3F5FA7F1DD2136040F2ED21124A136873
:1003F00001338B420FD8136008BD00231360FFF751
:1004000021FF0B4A13680133F92BE5D90023136050
:10041000FFF71CFFE1E700231360BDE80840FFF78A
:100420001DBF00231360FFF715FFDDE758210020F3
:1004300054210020502100204C21002070B5860757
:1004400047D0541E002A3ED00346CAB201E0013C08
:1004500039D303F8012B9D07F9D1032C2CD9CDB248
:1004600005EB05250F2C1A4605EB054534D9A4F1FB
:10047000100C2CF00F0603F1100EB6444FEA1C1CB2
:10048000C2E90055C2E9025510327245F8D10CF1AB
:10049000010214F00C0F03EB021204F00F0C13D046
:1004A000ACF1040323F003030433134442F8045B68
:1004B0009342FBD10CF003042CB1C9B21C4403F8E5
:1004C000011BA342FBD170BD64461346002CF4D13E
:1004D000F9E703461446C0E7A446E1E7844641EA4B
:1004E000000313F0030349D1403A23D30B680360A0
:1004F0004B6843608B688360CB68C3600B690361A2
:100500004B6943618B698361CB69C3610B6A036289
:100510004B6A43628B6A8362CB6AC3620B6B036371
:100520004B6B43638B6B8363CB6BC3634030403156
:10053000403ADBD230320BD30B6803604B68436028
:100540008B688360CB68C36010301031103AF3D2EF
:100550000C3205D351F8043B40F8043B043AF9D27D
:10056000043208D0D2071CBF11F8013B00F8013B50
:1005700001D30B8803806046704700BF082A13D35D
:100580008B07B1D010F00303AED0C3F10403D21A2D
:10059000DB071CBF11F8013B00F8013BA4D331F885
:1005A000023B20F8023B9FE7043AD9D3013A11F805
:1005B000013B00F8013BF9D20B7803704B78437094
:1005C0008B788370604670470400000008000000CC
:1005D0001000000000080140000C01400010014024
:0405E000F8B500BFAB
:0405E400F8B500BFA7
:0805E800F4FEFF7F010000009A
:0400000508000040AF
:00000001FF
