:020000040800F2
:1000000000000320310300082D0300082D03000821
:100010002D0300082D0300082D0300080000000038
:100020000000000000000000000000002D03000898
:100030002D030008000000002D0300081D02000829
:100040000023C0E900008360704700BFD0E90123AE
:100050000133C1E900021160C0E90113704700BF1C
:10006000D0E9002353601A60704700BF83680BB16A
:1000700000687047184670478068B0FA80F0400901
:10008000704700BF002208B5064B03F1EC00C3E93E
:100090003922C3F8E020FFF7D3FFBDE8084002484B
:1000A000FFF7CEBF00200020F8200020F8B514484C
:1000B000FFF7DCFF58B10446124F2546D5F8186407
:1000C0002468731E46B1C5F81834002CF5D10D48CC
:1000D000FFF7D2FF60B1F8BD2846FFF7C1FF294600
:1000E000384685F80C64FFF7B1FF002CE5D1EEE748
:1000F0000448FFF7BBFF044BC3F8E400F8BD00BFA2
:10010000F8200020EC20002000200020014BD3F834
:10011000E40070470020002038B50D4DD5F8E440CC
:100120001CB194F80C34012B03D0BDE83840FFF724
:10013000BDBF04F582642046FFF792FF214605F11A
:10014000EC00FFF783FFBDE83840FFF7AFBF00BF0B
:1001500000200020002230B4002400250648074B70
:10016000026003F14001C3E90045C3E902221033F4
:100170008B42F8D130BC70470421002008210020B8
:10018000F8B50C4E3368A3B100252F460A4CE3683E
:100190004BB1D4E9002301339342636003D3A368D6
:1001A000676003B1984733680135AB4204F110042E
:1001B000EDD8F8BD042100200821002008B5012257
:1001C0000C21032000F07EF801220D21032000F015
:1001D00079F801220E21032000F074F801220F218A
:1001E000032000F06FF800220C21032000F07CF8BF
:1001F00000220D21032000F077F800220E210320B9
:1002000000F072F8BDE8084000220F21032000F042
:100210006BB800BF4FF47A5000F07EB808B5064ABC
:1002200013680133136000F003F9FFF73FFFBDE8E7
:100230000840FFF7A5BF00BF48210020034AD2F8BD
:1002400030380343C2F83038704700BF00300240F6
:100250001A4B70B5064653F820000D461446FFF7BA
:10026000EDFF174B53F826306800196803228240CF
:1002700021EA0201196021781E688140314319602A
:1002800059680126AE4021EA060159606178A9400B
:100290005D6829435960996821EA02019960A17853
:1002A0009D68814029439960D96821EA0202DA6099
:1002B000E278D96882400A43DA6070BD3C060008E3
:1002C0005006000800B583B04FF0000C02238DF8F3
:1002D000042001AA8DF805C0ADF80630FFF7B8FF7D
:1002E00003B05DF804FB00BF044B53F8203002B9A3
:1002F000103101228A409A61704700BF5006000801
:10030000044B53F82020012350698B404340536134
:10031000704700BF500600084FF0E023013800216D
:100320000722586199611A61704700BFFEE700BF5C
:100330000D480E4A904208B507D2013A121A22F02F
:1003400003020B49043200F0DFF80A480A4A9042DF
:1003500007D2013A121A22F003020432002100F0FF
:1003600081F800F067F8FEE70000002000000020A0
:1003700074060008000000205C21002010B405482D
:10038000054C0649064A00232360036010BC0B603D
:100390001360704754210020582100205021002074
:1003A0004C2100201E4A08B513680133B3F5FA7FCB
:1003B00019D213601B4A136840F2ED2101338B42BE
:1003C00027D81360184A136840F2E14101338B4289
:1003D00018D81360154A136840F2DB5101338B4281
:1003E00008D8136008BD00230C2103201360FFF719
:1003F00087FFDFE7002313600F21BDE808400320DB
:10040000FFF77EBF00230E2103201360FFF778FF64
:10041000E0E700230D2103201360FFF771FFD1E710
:100420005821002054210020502100204C21002080
:10043000FFF7B8BF08B5FFF7C1FEFFF7EBFEFFF708
:1004400021FEFFF787FEFFF799FFFFF72FFEFFF76B
:100450005DFE18B1D0F8043403B19847FFF75CFE95
:10046000F5E700BF830730B547D0541E002A3ED0C1
:10047000CAB2034601E0013C39D303F8012B9D07C2
:10048000F9D1032C2CD9CDB205EB05250F2C05EBAA
:10049000054535D9A4F1100222F00F0C03F1100E1E
:1004A000E6444FEA121C1A46C2E90055C2E9025559
:1004B00010327245F8D10CF1010214F00C0F03EB6D
:1004C000021204F00F0C13D0ACF1040323F0030369
:1004D0000433134442F8045B9342FBD10CF0030451
:1004E0002CB1C9B21C4403F8011BA342FBD130BD9F
:1004F00064461346002CF4D1F9E703461446C0E7DE
:100500001A46A446E0E700BF844641EA000313F020
:1005100003036DD1403A41D351F8043B40F8043B0A
:1005200051F8043B40F8043B51F8043B40F8043BCD
:1005300051F8043B40F8043B51F8043B40F8043BBD
:1005400051F8043B40F8043B51F8043B40F8043BAD
:1005500051F8043B40F8043B51F8043B40F8043B9D
:1005600051F8043B40F8043B51F8043B40F8043B8D
:1005700051F8043B40F8043B51F8043B40F8043B7D
:1005800051F8043B40F8043B51F8043B40F8043B6D
:1005900051F8043B40F8043B403ABDD2303211D30D
:1005A00051F8043B40F8043B51F8043B40F8043B4D
:1005B00051F8043B40F8043B51F8043B40F8043B3D
:1005C000103AEDD20C3205D351F8043B40F8043B0D
:1005D000043AF9D2043208D0D2071CBF11F8013B0B
:1005E00000F8013B01D30B8803806046704700BFD1
:1005F000082A13D38B078DD010F003038AD0C3F1E0
:100600000403D21ADB071CBF11F8013B00F8013BC1
:1006100080D331F8023B20F8023B7BE7043AD9D380
:10062000013A11F8013B00F8013BF9D20B78037055
:100630004B7843708B7883706046704701000000F0
:10064000020000000400000008000000100000008C
:10065000000002400004024000080240000C02407A
:040660000010024044
:04066400F8B500BF26
:04066800F8B500BF22
:08066C009CFEFF7F010000006D
:0400000508000040AF
:00000001FF
