:020000040800F2
:1000000000500020A9020008A5020008A50200086F
:10001000A5020008A5020008A502000800000000D3
:10002000000000000000000000000000A502000821
:10003000A502000800000000A5020008390200081F
:100040000023C0E900008360704700BFD0E90123AE
:100050000133C1E900021160C0E90113704700BF1C
:10006000D0E9002353601A60704700BF83680BB16A
:1000700000687047184670478068B0FA80F0400901
:10008000704700BF002208B5064B03F1EC00C3E93E
:100090003922C3F8E020FFF7D3FFBDE8084002484B
:1000A000FFF7CEBF00200020F8200020F8B514484C
:1000B000FFF7DCFF58B10446124F2546D5F8186407
:1000C0002468731E46B1C5F81834002CF5D10D48CC
:1000D000FFF7D2FF60B1F8BD2846FFF7C1FF294600
:1000E000384685F80C64FFF7B1FF002CE5D1EEE748
:1000F0000448FFF7BBFF044BC3F8E400F8BD00BFA2
:10010000F8200020EC20002000200020014BD3F834
:10011000E40070470020002038B50D4DD5F8E440CC
:100120001CB194F80C34012B03D0BDE83840FFF724
:10013000BDBF04F582642046FFF792FF214605F11A
:10014000EC00FFF783FFBDE83840FFF7AFBF00BF0B
:1001500000200020002230B4002400250648074B70
:10016000026003F14001C3E90045C3E902221033F4
:100170008B42F8D130BC70470421002008210020B8
:10018000F8B50C4E3368A3B100252F460A4CE3683E
:100190004BB1D4E9002301339342636003D3A368D6
:1001A000676003B1984733680135AB4204F110042E
:1001B000EDD8F8BD04210020082100201549164A79
:1001C0008869164B40F004008861886940F010008F
:1001D0008861D2F800186FF30B01C2F80018D2F84A
:1001E000001841F44C7141F00301C2F8001859683D
:1001F00021F470015960596841F440115960D2F8F6
:100200000C1841F00701C2F80C18DA6842F40052E9
:10021000DA60704700100240000001400010014009
:100220004FF0E023002107220248586199611A61CA
:10023000704700BF3F19010008B5064A1368013333
:10024000136000F057F8FFF731FFBDE80840FFF7F3
:1002500097BF00BF48210020024AD36883F40053AF
:10026000D360704700100140034AD2F80C3883F085
:100270000103C2F80C38704700000140034AD2F86D
:100280000C3883F00203C2F80C38704700000140BC
:10029000034AD2F80C3883F00403C2F80C387047D4
:1002A00000000140FEE700BF0D480E4A08B590422D
:1002B00007D2013A121A22F003020B49043200F06D
:1002C000D5F80A480A4A904207D2013A121A22F097
:1002D00003020021043200F079F800F00DF8FEE787
:1002E0000000002000000020680500080000002039
:1002F0005C21002000F02CB808B5FFF75FFFFFF786
:100300008FFFFFF7BFFEFFF725FF00F00DF8FFF7A7
:10031000CDFEFFF7FBFE18B1D0F8043403B19847C7
:10032000FFF7FAFEF5E700BF002310B40448054CC0
:100330000549064A2360036010BC0B6013607047D8
:100340005421002058210020502100204C21002061
:100350001A4A08B513680133632B16D81360184A7C
:1003600013680133F92B19D81360164A1368013347
:10037000B3F5FA7F1DD2136040F2ED21124A1368E3
:1003800001338B420FD8136008BD00231360FFF7C1
:1003900063FF0B4A13680133F92BE5D9002313607F
:1003A000FFF762FFE1E700231360BDE80840FFF7B5
:1003B0006FBF00231360FFF761FFDDE758210020C6
:1003C00054210020502100204C21002070B58607C8
:1003D00047D0541E002A3ED00346CAB201E0013C79
:1003E00039D303F8012B9D07F9D1032C2CD9CDB2B9
:1003F00005EB05250F2C1A4605EB054534D9A4F16C
:10040000100C2CF00F0603F1100EB6444FEA1C1C22
:10041000C2E90055C2E9025510327245F8D10CF11B
:10042000010214F00C0F03EB021204F00F0C13D0B6
:10043000ACF1040323F003030433134442F8045BD8
:100440009342FBD10CF003042CB1C9B21C4403F855
:10045000011BA342FBD170BD64461346002CF4D1AE
:10046000F9E703461446C0E7A446E1E7844641EABB
:10047000000313F0030349D1403A23D30B68036010
:100480004B6843608B688360CB68C3600B69036112
:100490004B6943618B698361CB69C3610B6A0362FA
:1004A0004B6A43628B6A8362CB6AC3620B6B0363E2
:1004B0004B6B43638B6B8363CB6BC36340304031C7
:1004C000403ADBD230320BD30B6803604B68436099
:1004D0008B688360CB68C36010301031103AF3D260
:1004E0000C3205D351F8043B40F8043B043AF9D2EE
:1004F000043208D0D2071CBF11F8013B00F8013BC1
:1005000001D30B8803806046704700BF082A13D3CD
:100510008B07B1D010F00303AED0C3F10403D21A9D
:10052000DB071CBF11F8013B00F8013BA4D331F8F5
:10053000023B20F8023B9FE7043AD9D3013A11F875
:10054000013B00F8013BF9D20B7803704B78437004
:080550008B7883706046704750
:04055800F8B500BF33
:04055C00F8B500BF2F
:080560000CFFFF7F0100000009
:0400000508000040AF
:00000001FF
